:100000000C9446000C9465000C9465000C946500FB
:100010000C9465000C9465000C9465000C946500CC
:100020000C9465000C9465000C9465000C946500BC
:100030000C9465000C9465000C9465000C946500AC
:100040000C9465000C9465000C9465000C9465009C
:100050000C94EB000C9465000C9465000C94650006
:100060000C9465000C9465000C9465000C9465007C
:100070000C9465000C9465000C9465000C9465006C
:100080000C9465000C9465000C94650011241FBE4F
:10009000CFEFD0E4DEBFCDBF11E0A0E0B1E0E6EEEF
:1000A000F3E000E00BBF02C007900D92A630B1074D
:1000B000D9F713E1A6E0B1E001C01D92AB30B10762
:1000C000E1F70E9438010C94F1010C94000025B175
:1000D000982F9170287F922B60FF02C022E001C010
:1000E00020E0922B95B9F8942A9A2A98789425B111
:1000F00081FB992790F9362F3270932B287F922B12
:1001000095B9F8942A9A2A98789425B182FB992770
:1001100090F9287F922B62FF02C022E001C020E00C
:10012000922B95B9F8942A9A2A98789425B183FB52
:10013000992790F9287F922B63FF02C022E001C02B
:1001400020E0922B95B9F8942A9A2A98789425B1B0
:1001500084FB992790F9287F922B64FF02C022E04C
:1001600001C020E0922B95B9F8942A9A2A987894A5
:1001700025B185FB992790F9287F922B65FF02C056
:1001800022E001C020E0922B95B9F8942A9A2A988F
:10019000789425B186FB992790F9287F922B66FFEA
:1001A00002C022E001C020E0922B95B9F8942A9A6F
:1001B0002A98789495B1881F8827881F987F892B63
:1001C000661F6627661F660F862B85B9F8942A9AE4
:1001D0002A98789408951F920F920FB60F921124C7
:1001E0000BB60F922F933F934F938F939F93EF9361
:1001F000FF93109208012091000130910101E091DC
:100200000601F09107018091C600E20FF31F808381
:1002100080910601909107010196909307018093C8
:10022000060181159640B1F4109207011092060163
:10023000809102019091030190930101809300014C
:10024000309303012093020181E08093090188B17A
:10025000805888B9FF91EF919F918F914F913F9175
:100260002F910F900BBE0F900FBE0F901F901895FF
:10027000CF93DF9300D01F92CDB7DEB78FEF87B952
:1002800080E388B987E084B984E085B940E052E131
:100290006FEF70E08AE091E00E94EA01F89410921A
:1002A000C00088E98093C10086E08093C20010926C
:1002B000C50091E09093C40092E09093B0008093C9
:1002C000B1001092B2008BE38093B30010927000E3
:1002D000789482E0F82E4CE0B99BFECFF7BA469AAC
:1002E00098B120910A13822F8061907C892B88B964
:1002F000205D39C0C0900401D09005012403C001E5
:1003000011248601080F191F085F1C4FC80ED91E43
:1003100088E0C80ED11C9BE0F8016081F601808165
:1003200029834B839A830E946700F8016181F6015B
:1003300081810E946700F8016281F60182810E943A
:100340006700F8016381F60183810E9467009A814A
:10035000945004501109F4E0CF1AD10829814B813F
:100360009F3FD1F6205127FFC5CF459A44988091F1
:100370000A138F5F803119F080930A1329C01092FD
:100380000A13F89480910901882391F08091040167
:1003900090910501209102013091030130930501F4
:1003A00020930401909303018093020110920901AC
:1003B0007894F894809108018F5F809308018C33C2
:1003C00031F41092070110920601109208017894FE
:1003D000469882CFDC0101C06D9341505040E0F758
:0603E0000895F894FFCF20
:0603E6000A010A070A0DDE
:00000001FF
