:100000000C9446000C9465000C9465000C946500FB
:100010000C9465000C9465000C9465000C946500CC
:100020000C9465000C941C010C9465000C94650004
:100030000C9465000C9465000C9465000C946500AC
:100040000C9465000C9465000C9465000C9465009C
:100050000C9465000C9465000C9465000C9465008C
:100060000C9465000C9465000C9465000C9465007C
:100070000C9465000C9465000C9465000C9465006C
:100080000C9465000C9465000C94650011241FBE4F
:10009000CFEFD0E4DEBFCDBF11E0A0E0B1E0EAE9F0
:1000A000F7E000E00BBF02C007900D92A830B10747
:1000B000D9F71DE0A8E0B1E001C01D92AA30B10758
:1000C000E1F70E942F020C94CB030C94000025B1A1
:1000D000982F9170287F922B60FF02C022E001C010
:1000E00020E0922B95B92A9A2A9825B181FB99276D
:1000F00090F9362F3270932B287F922B95B92A9A3C
:100100002A9825B182FB992790F9287F922B62FFCC
:1001100002C022E001C020E0922B95B92A9A2A98C9
:1001200025B183FB992790F9287F922B63FF02C0AA
:1001300022E001C020E0922B95B92A9A2A9825B195
:1001400084FB992790F9287F922B64FF02C022E05C
:1001500001C020E0922B95B92A9A2A9825B185FBF7
:10016000992790F9287F922B65FF02C022E001C0F9
:1001700020E0922B95B92A9A2A9825B186FB9927D7
:1001800090F9287F922B66FF02C022E001C020E098
:10019000922B95B92A9A2A9895B1881F8827881F8B
:1001A000987F892B661F6627661F660F862B85B989
:1001B0002A9A2A98089520E033E0582F529FC001D0
:1001C000539F900D1124E0910001F0910101E80F7F
:1001D000F91F862F8695869586959CE0499FA001FC
:1001E0001124480F511DE40FF51F808190E06770C6
:1001F00002C0959587956A95E2F78095817008957C
:10020000E0910201F0910301982F969596959695AD
:100210002CE0629FB0011124690F711DE60FF71FDA
:100220009081877021E030E0082E01C0220F0A94EF
:10023000EAF7922B908308951F920F920FB60F92B8
:1002400011240BB60F92EF92FF920F931F932F93EF
:100250003F934F935F936F937F938F939F93AF934E
:10026000BF93EF93FF93CF93DF9300D01F92CDB74F
:10027000DEB798B12091090D822F8061907C892B87
:1002800088B9205D3CE039C0E0900001F0900101A8
:100290002303C00111248701080F191F085F1C4F99
:1002A000E80EF91E88E0E80EF11C9BE0F801608181
:1002B000F701808129833B839A830E946700F801BC
:1002C0006181F70181810E946700F8016281F70175
:1002D00082810E946700F8016381F70183810E9497
:1002E00067009A81945004501109F4E0EF1AF10864
:1002F00029813B819F3FD1F6205127FFC5CF459AE9
:1003000044988091090D8F5F8093090D8031C1F46D
:100310001092090D80910801882391F080910201CB
:10032000909103012091000130910101309303016C
:100330002093020190930101809300011092080123
:100340000F900F900F90DF91CF91FF91EF91BF91A0
:10035000AF919F918F917F916F915F914F913F915D
:100360002F911F910F91FF90EF900F900BBE0F9068
:100370000FBE0F901F901895FF920F931F93CF936E
:10038000DF93082FD62F142F662361F0442309F43E
:100390005DC0415061500E94DB00C1E0811105C089
:1003A000C0E003C0C0E0442309F1F12EFA944F2DC0
:1003B0006D2F802F0E94DB008111CF5FDF3560F44D
:1003C000112341F06D2F6F5F4F2D802F0E94DB00B6
:1003D0008111CF5FDD2351F06D2F6150412F802FB0
:1003E0000E94DB008111CF5FDF3550F46D2F6F5F0E
:1003F000412F802F0E94DB008111CF5FDD2369F048
:100400001F3330F5412F4F5F6D2F6150802F0E94B9
:10041000DB00882321F0CF5F02C01F33C8F4F12E28
:10042000F3944F2D6D2F802F0E94DB008111CF5F41
:10043000DF3570F41F3360F46D2F6F5F4F2D802F09
:100440000E94DB00882321F0CF5F02C0C0E0C4CF50
:100450008C2FDF91CF911F910F91FF9008958FEF17
:1004600087B980E388B987E084B984E085B940E042
:100470005CE06FEF70E089E091E00E946703F89420
:1004800082E08093B00096E09093B1001092B200A9
:1004900090E49093B300809370007894C0E0D0E033
:1004A000C12CDD24D3942CE0822E99249A942DC063
:1004B000A0900201B09003010E945803B6010E946F
:1004C000E0029701200F311FF501E20FF31F808337
:1004D000E0910201F0910301FD5FE20FF31F9082B2
:1004E000E0910001F0910101DF01A20FB31F9C9286
:1004F000FD5FE20FF31F90820F5F1F4F0C3011055D
:10050000B9F62196C034D10541F000E010E08C9E90
:1005100070018D9EF00C1124CBCFCC24C3948CE0C1
:10052000B82E01E010E0C09208018091080181110D
:10053000FCCF469AC0E0D0E039C04D2D6A2D80E056
:100540000E94BC01823019F0833021F508C04D2D86
:100550006A2D80E00E94DB00811101C01BC0E09188
:100560000201F09103018A2D869586958695970163
:10057000280F311DE20FF31F80812A2D2770A8015B
:1005800002C0440F551F2A95E2F79A0120952823AF
:10059000208304C06D2D8A2D0E940001A39450E693
:1005A000A512CBCF2196C034D10541F0DC2EA12C71
:1005B000BC9E7001BD9EF00C1124BFCF4698B3CFF6
:1005C00097FB072E16F4009407D077FD09D00E9400
:1005D000F40207FC05D03EF4909581959F4F089555
:1005E000709561957F4F0895AA1BBB1B51E107C011
:1005F000AA1FBB1FA617B70710F0A61BB70B881FB3
:10060000991F5A95A9F780959095BC01CD01089541
:100610008F929F92AF92BF92CF92DF92EF92FF9212
:10062000CF93DF93EC01688179818A819B81611589
:1006300071058105910521F464E279ED8BE597E080
:100640002DE133EF41E050E00E94810349015A015E
:100650009B01AC01A7EAB1E40E946E036B017C012F
:10066000ACEEB4EFA50194010E947C03C60ED71E28
:10067000E81EF91EF7FE06C081E0C81AD108E1089D
:1006800080E8F80AC882D982EA82FB82E894D7F827
:10069000EE24FF24C601DF91CF91FF90EF90DF9011
:1006A000CF90BF90AF909F908F9008950C940803C7
:1006B00084E091E00C940803A0E0B0E08093040192
:1006C00090930501A0930601B09307010895DC0102
:1006D00001C06D9341505040E0F708950E949D0382
:1006E000A59F900DB49F900DA49F800D911D112486
:1006F0000895B7FF0C946E030E946E03821B930B48
:100700000895052E97FB16F4009407D057FD0DD0E1
:100710000E94A90307FC09D07EF4909580957095FE
:1007200061957F4F8F4F9F4F08955095409530951D
:1007300021953F4F4F4F5F4F0895A29FB001B39F48
:10074000C001A39F01D0B29F700D811D1124911D86
:100750000895A1E21A2EAA1BBB1BFD010DC0AA1F02
:10076000BB1FEE1FFF1FA217B307E407F50720F01A
:10077000A21BB30BE40BF50B661F771F881F991F95
:100780001A9469F760957095809590959B01AC01DE
:0A079000BD01CF010895F894FFCFDA
:08079A0009070901010000003C
:00000001FF
