:100000000C94AC040C94CB040C94CB040C94CB0453
:100010000C94CB040C94CB040C94CB040C94CB0424
:100020000C94CB040C94D3050C94CB040C94CB040B
:100030000C94CB040C94CB040C94CB040C94CB0404
:100040000C94CB040C94CB040C94CB040C94CB04F4
:100050000C94CB040C94CB040C94CB040C94CB04E4
:100060000C948B050C94CB040C94CB040C94CB0413
:100070000C94CB040C94CB040C94CB040C94CB04C4
:100080000C94CB040C94CB040C94CB04000005001E
:1000900014002D0050007C00B300F3003D019101DD
:1000A000EF015602C7024103C5035204E904880563
:1000B0003106E3069D0761082D09010ADE0AC30B1C
:1000C000B10CA60DA30EA80FB410C811E2120414AF
:1000D0002D155C169217CE18101A581BA61CF91D68
:1000E000521FAF2012227923E5245426C827402925
:1000F000BB2A392CBB2D3F2FC6304F32DA3368353F
:10010000F6368738183AAB3B3E3DD13E6540F94163
:100110008C431F45B1464248D1495F4BEC4C764E6B
:10012000FE4F84510753875403567D57F258645A43
:10013000D25B3B5DA05E00605B61B16202644C65B6
:100140009266D1670A693C6A686B8D6CAC6DC36E50
:10015000D36FDC70DC71D672C773B07491756A7638
:100160003A770278C1787779247AC87A647BF57B0C
:100170007E7CFD7C737DDF7D417E9A7EE97E2E7FD5
:100180006A7F9B7FC37FE17FF57FFF7FFF7FF57FE6
:10019000E17FC37F9B7F6A7F2E7FE97E9A7E417ECF
:1001A000DF7D737DFD7C7E7CF57B647BC87A247A61
:1001B0007779C17802783A776A769175B074C773A7
:1001C000D672DC71DC70D36FC36EAC6D8D6C686BF6
:1001D0003C6A0A69D16792664C650264B1625B61F0
:1001E0000060A05E3B5DD25B645AF2587D570356B7
:1001F000875407538451FE4F764EEC4C5F4BD149E8
:100200004248B1461F458C43F9416540D13E3E3DD1
:10021000AB3B183A8738F6366835DA334F32C6309A
:100220003F2FBB2D392CBB2A4029C8275426E52453
:1002300079231222AF20521FF91DA61C581B101A39
:10024000CE1892175C162D150414E212C811B410C2
:10025000A80FA30EA60DB10CC30BDE0A010A2D09CF
:1002600061089D07E30631068805E9045204C503C9
:100270004103C7025602EF0191013D01F300B300B3
:100280007C0050002D001400050000000001010258
:10029000020202030303030303040404040404042A
:1002A00004050505050505050505050606060606FA
:1002B00006060606060606070707070707070707D5
:1002C00007070707070808080808080808080808B3
:1002D0000808080808090909090909090909090993
:1002E000090909090909090A0A0A0A0A0A0A0A0A75
:1002F0000A0A0A0A0A0A0A0A0A0A0A0B0B0B0B0B59
:100300000B0B0B0B0B0B0B0B0B0B0B0B0B0B0B0B3D
:100310000B0C0C0C0C0C0C0C0C0C0C0C0C0C0C0C1E
:100320000C0C0C0C0C0C0C0C0C0D0D0D0D0D0D0D06
:100330000D0D0D0D0D0D0D0D0D0D0D0D0D0D0D0DED
:100340000D0D0D0E0E0E0E0E0E0E0E0E0E0E0E0ED0
:100350000E0E0E0E0E0E0E0E0E0E0E0E0E0E0E0FBC
:100360000F0F0F0F0F0F0F0F0F0F0F0F0F0F0F0F9D
:100370000F0F0F0F0F0F0F0F0F0F0F0F0F1010108A
:100380001010101010101010101010100006080A95
:100390000B0D0E0F10111213141415161717181930
:1003A000191A1B1B1C1C1D1D1E1E1F1F2020212176
:1003B00022222323242425252626262727282828E9
:1003C00029292A2A2A2B2B2B2C2C2D2D2D2E2E2E73
:1003D0002F2F2F303030313131323232333333340A
:1003E00034343435353536363637373737383838AC
:1003F000393939393A3A3A3B3B3B3B3C3C3C3C3D52
:100400003D3D3D3E3E3E3E3F3F3F3F40000B1014D2
:1004100017191C1E2022242627292A2C2D2F303183
:100420003334353637393A3B3C3D3E3F4041424319
:10043000444546474848494A4B4C4D4E4E4F505113
:1004400052525354555556575858595A5B5B5C5D38
:100450005D5E5F5F60616162636364656566666778
:100460006868696A6A6B6B6C6D6D6E6E6F6F7071C8
:100470007172727373747475767677777878797928
:100480007A7A7B7B7C7C7D7D7E7E7F7F0010171C53
:100490002024272A2D303335373A3C3E404244460B
:1004A00048494B4D4E505253555658595B5C5D5F11
:1004B00060616364656668696A6B6D6E6F707172A6
:1004C0007374767778797A7B7C7D7E7F8081828376
:1004D0008485868788898A8B8B8C8D8E8F9091926C
:1004E0009394949596979899999A9B9C9D9E9E9F7C
:1004F000A0A1A2A2A3A4A5A6A6A7A8A9A9AAABAC9D
:10050000ACADAEAFAFB0B1B1B2B3B4B4B5B6B6B7CF
:10051000B8B9B9BABBBBBCBDBDBEBFBFC0C1C1C20B
:10052000C3C3C4C5C5C6C7C7C8C8C9CACACBCCCC53
:10053000CDCECECFCFD0D1D1D2D2D3D4D4D5D5D6A3
:10054000D7D7D8D8D9DADADBDBDCDDDDDEDEDFDFFA
:10055000E0E1E1E2E2E3E3E4E5E5E6E6E7E7E8E857
:10056000E9EAEAEBEBECECEDEDEEEEEFEFF0F1F1BA
:10057000F2F2F3F3F4F4F5F5F6F6F7F7F8F8F9F923
:10058000FAFAFBFBFCFCFDFDFEFEFFFF0000080D80
:100590001013151618191B1C1D1E1E1F20212122A9
:1005A00023232424252526262627272828282929E9
:1005B000292A2A2A2B2B2B2B2C2C2C2C2D2D2D2D84
:1005C0002E2E2E2E2E2F2F2F2F2F30303030303139
:1005D00031313131313232323232323233333333FC
:1005E00033333334343434343434343535353535C9
:1005F000353535353636363636363636363737379C
:100600003737373737373738383838383838383871
:1006100038383939393939393939393939393A3A4A
:100620003A3A3A3A3A3A3A3A3A3A3A3B3B3B3B3B25
:100630003B3B3B3B3B3B3B3B3B3B3C3C3C3C3C3C04
:100640003C3C3C3C3C3C3C3C3C3C3D3D3D3D3D3DE4
:100650003D3D3D3D3D3D3D3D3D3D3D3E3E3E3E3EC5
:100660003E3E3E3E3E3E3E3E3E3E3E3E3E3F3F3FA7
:100670003F3F3F3F3F3F3F3F3F3F3F3F3F3F3F3F8A
:100680003F3F40404040404040404040F00FF81F56
:10069000F42FFC3FF24FFA5FF66FFE7FF18FF99F68
:1006A000F5AFFDBFF3CFFBDFF7EFE007E817E42777
:1006B000EC37E247EA57E667EE77E187E997E5A787
:1006C000EDB7E3C7EBD7D00BD81BD42BDC3BD24B19
:1006D000DA5BD66BDE7BD18BD99BD5ABDDBBD3CBC5
:1006E000C003C813C423CC33C243CA53C663CE73FA
:1006F000C183C993C5A3CDB3B00DB81DB42DBC3D06
:10070000B24DBA5DB66DBE7DB18DB99DB5ADA005DA
:10071000A815A425AC35A245AA55A665AE75A18538
:10072000A9959009981994299C3992499A599669E2
:100730009E7991898001881184218C3182418A516E
:1007400086618E71700E781E742E7C3E724E7A5EBB
:10075000766E6006681664266C3662466A56500AE3
:10076000581A542A5C3A524A4002481244224C32E7
:10077000300C381C342C2004281410084276FC302D
:10078000825A825AFC3042768A7DF9184276FC30D1
:100790006E6A1D47825A825A1D476E6AFC30427645
:1007A000F9188A7D627F8C0C8A7DF9187D7A28255C
:1007B0004276FC30E370573C6E6A1D47F26234515A
:1007C000825A825A3451F2621D476E6A573CE37076
:1007D000FC30427628257D7AF9188A7D8C0C627F60
:1007E000D97F4806627F8C0C9D7EC8128A7DF918DD
:1007F0002A7C1A1F7D7A282585781F2B4276FC30AB
:10080000B673BA36E370573CCA6DCE416E6A1D4767
:10081000D066404CF2623451D75EF655825A825A05
:10082000F655D75E3451F262404CD0661D476E6A71
:10083000CE41CA6D573CE370BA36B673FC3042768F
:100840001F2B857828257D7A1A1F2A7CF9188A7D26
:10085000C8129D7E8C0C627F4806D97FF67F2403E8
:10086000D97F4806A77F6B09627F8C0C0A7FAB0F8C
:100870009D7EC8121E7EE2158A7DF918E47C0C1C50
:100880002A7C1A1F5D7B24227D7A28258A792728D5
:1008900085781F2B6C77112E4276FC300575DF337F
:1008A000B673BA3655728D39E370573C5F6F173F98
:1008B000CA6DCE41246C7B446E6A1D47A768B4495B
:1008C000D066404CE964C04EF2623451EC609B53F8
:1008D000D75EF655B45C4358825A825A4358B45C8A
:1008E000F655D75E9B53EC603451F262C04EE9641A
:1008F000404CD066B449A7681D476E6A7B44246C9F
:10090000CE41CA6D173F5F6F573CE3708D3955720A
:10091000BA36B673DF330575FC304276112E6C772C
:100920001F2B857827288A7928257D7A24225D7BCC
:100930001A1F2A7C0C1CE47CF9188A7DE2151E7EA5
:10094000C8129D7EAB0F0A7F8C0C627F6B09A77F5C
:100950004806D97F2403F67F11241FBECFEFD0E4D1
:10096000DEBFCDBF11E0A0E0B1E0E4ECF8E100E0D3
:100970000BBF02C007900D92A430B107D9F710E168
:10098000A4E0B1E001C01D92A938B107E1F70E94CF
:1009900074060C94600C0C94000025B1982F917093
:1009A000287F922B60FF02C022E001C020E0922B42
:1009B00095B92A9A2A9825B181FB992790F9362F63
:1009C0003270932B287F922B95B92A9A2A9825B1B9
:1009D00082FB992790F9287F922B62FF02C022E0C8
:1009E00001C020E0922B95B92A9A2A9825B183FB61
:1009F000992790F9287F922B63FF02C022E001C063
:100A000020E0922B95B92A9A2A9825B184FB992740
:100A100090F9287F922B64FF02C022E001C020E001
:100A2000922B95B92A9A2A9825B185FB992790F996
:100A3000287F922B65FF02C022E001C020E0922BAC
:100A400095B92A9A2A9825B186FB992790F9287F8B
:100A5000922B66FF02C022E001C020E0922B95B9E4
:100A60002A9A2A9895B1881F8827881F987F892BF2
:100A7000661F6627661F660F862B85B92A9A2A98F5
:100A8000089590E0A0910201B0910301762F769530
:100A90007695769521111FC020E033E0829FF0010A
:100AA000839FF00D929FF00D1124EA0FFB1F8CE045
:100AB000489FA0011124470F511DE40FF51F20810D
:100AC000677081E090E0062E01C0880F0A94EAF773
:100AD000282B2083089520E033E0829FF001839F3C
:100AE000F00D929FF00D1124EA0FFB1F8CE0489F40
:100AF000A0011124470F511DE40FF51F20816770DD
:100B000081E090E0062E01C0880F0A94EAF78095F4
:100B10008223808308951F920F920FB60F921124A3
:100B20000BB60F922F933F938F939F93EF93FF9367
:100B300086E085BB2091780030917900932F80E08A
:100B4000822B92502091060D3091070DF901EE0F86
:100B5000FF1FE757F14F689415F8880F991F1694F7
:100B6000E1F791838083C9010196811521E0920705
:100B700029F09093070D8093060D08C01092070D81
:100B80001092060D15BC81E080930401FF91EF9156
:100B90009F918F913F912F910F900BBE0F900FBEA1
:100BA0000F901F9018951F920F920FB60F9211245D
:100BB0000BB60F92EF92FF920F931F932F933F93D9
:100BC0004F935F936F937F938F939F93AF93BF9355
:100BD000EF93FF93CF93DF9300D01F92CDB7DEB793
:100BE000789498B12091080D822F8061907C892B98
:100BF00088B9205D3CE039C0E0900001F09001012F
:100C00002303C00111248701080F191F085F1C4F1F
:100C1000E80EF91E88E0E80EF11C9BE0F801608107
:100C2000F701808129833B839A830E94CD04F801D8
:100C30006181F70181810E94CD04F8016281F70191
:100C400082810E94CD04F8016381F70183810E94B3
:100C5000CD049A81945004501109F4E0EF1AF10880
:100C600029813B819F3FD1F6205127FFC5CF459A6F
:100C700044988091080D8F5F8093080D8031C1F4F6
:100C80001092080D80910501882391F08091020156
:100C900090910301209100013091010130930301F3
:100CA00020930201909301018093000110920501AD
:100CB0000F900F900F90DF91CF91FF91EF91BF9127
:100CC000AF919F918F917F916F915F914F913F91E4
:100CD0002F911F910F91FF90EF900F900BBE0F90EF
:100CE0000FBE0F901F901895F8948FEB87B980E78F
:100CF00088B987E084B984E085B940E05CE06FEFB3
:100D000070E086E091E00E94590C82E08093B00090
:100D100096E09093B1001092B20090E49093B300EB
:100D20008093700084BD15BC16BC89EF87BD88BD5B
:100D300090937C0083E080937B0081E080937E0031
:100D40008CEB80937A00789481E080930501809108
:100D500005018111FCCF479A16BCE2E0E5BD809108
:100D600004018823E1F3109204012F923F924F92E5
:100D70005F92FF920F931F93CF93DF93C9E8DEE05A
:100D8000ECE8F0E0FF2440E065917591088119815D
:100D9000970320010E034F1C10019E035F08300CC7
:100DA000411C5F1CF8035F08300C411C5F1C49921A
:100DB00059924A9549F7DF91CF911F910F91FF907A
:100DC0005F904F903F902F9011242F923F926F92FF
:100DD0007F92CF93DF93ECE8F6E048E7A591BB273D
:100DE000AA0FBB1FA757B14F2D903C90C591DD278F
:100DF000CC0FDD1FC757D14F688079807C926E92EF
:100E0000288239824A9551F7DF91CF917F906F9078
:100E10003F902F902F923F924F925F926F927F92CE
:100E20008F929F92AF92BF92CF92DF92EF92FF92FA
:100E30000F931F93CF93DF93FF2400E2E02EC9E8C6
:100E4000DEE0688079804A805B8075946794430116
:100E500055944794640C751C84189508AC80BD802B
:100E60004E805F80B594A794650155944794A40C77
:100E7000B51CC418D508688579854A845B84759546
:100E800067958B0155944794640D751D04191509D8
:100E90008C859D854E845F84959587959C0155949E
:100EA0004794840D951D2419350975946794230181
:100EB000B594A7946A0C7B1C4A185B089594879498
:100EC0005401D594C7948C0C9D1CAC18BD08759525
:100ED00067956B0195958795680F791FC81AD90A90
:100EE00075946794130175956795660E771E261A9B
:100EF000370A42E85AE51503C001049FB001140304
:100F00009F09700D811D9F1D509F700D811D9F1D9C
:100F1000959487948401880E991E081B190B55948B
:100F20004794D201D594C7944C0C5D1CAC19BD09F3
:100F30003503C001249FB00134039F09700D811D4A
:100F40009F1D529F700D811D9F1DB594A794650133
:100F5000A80EB91EC81AD90A6992799289929992F3
:100F600049925992A992B992299239920993199367
:100F7000A993B993C992D992EA9409F062CF00E299
:100F8000C02EDD2400E1902EECE7F7E000E1A02E7A
:100F9000BB2404E0E02EA9E8BEE0ED01CA0DDB1D94
:100FA0008E2C2D903C9048805980359427943101A7
:100FB00055944794640C751C24183508299239926D
:100FC0007C926E92AC0DBD1D1197EA940881198137
:100FD0003C912E9145915591659175911502200195
:100FE000049F100114035F08300C411C5F1C509FCC
:100FF000300C411C5F1C37023001269F200C311C35
:10100000461C571C36035F08300C411C5F1C729F46
:10101000300C411C5F1C0E01CA19DB092880398085
:10102000359427943101640C751C241835086882A6
:101030007982E0012992399217022001069F10015E
:1010400016035F08300C411C5F1C709F300C411C64
:101050005F1C35023001249F2018310846085708CC
:1010600034035F1C301841085F08529F3018410854
:101070005F080D01AA19BB092D903C903594279467
:101080003101640C751C241835087C926E92D001D5
:101090002D923C921297EA9409F098CFDE01AA199A
:1010A000BB092D903C90488059803594279431019C
:1010B00055944794640C751C24183508288239828D
:1010C0007C926E92C50196958795C80FD91FC93835
:1010D000D90540F4DE01CA0DDB1DE82CEA19FB0935
:1010E00034965FCF86FC06C0EA2CE6945601CC0C01
:1010F000DD1C51CFDF91CF911F910F91FF90EF90A9
:10110000DF90CF90BF90AF909F908F907F906F9027
:101110005F904F903F902F901124369B74C02F9278
:101120003F924F925F926F927F928F929F92FF9227
:101130000F931F93CF93DF93A9E8BEE0C9E0DDE0F2
:10114000E9E8F0E14F01FF2440E80D911D9198017D
:1011500006C0F4010D911D91329122914F011102AF
:101160002001009F100198035F08300C411C5F1C98
:1011700033023001229F200C311C461C571CBA033D
:101180005F08300C411C5F1C1127552051F01CE0FA
:10119000E52DE034F8F4440CEE1F440CEE1F1A95D4
:1011A000F8CF442051F018E0E42DE03498F4330CEB
:1011B000EE1F330CEE1F1A95F8CF332051F014E0D8
:1011C000E32DE03438F4220CEE1F220CEE1F1A95AA
:1011D000F8CFE22DFF27E457FA4F04911295010F43
:1011E00009934A9509F0B5CFDF91CF911F910F91E7
:1011F000FF909F908F907F906F905F904F903F9067
:101200002F90112484C02F923F924F925F926F9241
:101210007F928F92FF920F931F93CF93DF93A9E852
:10122000BEE0C9E8DDE0E9E8F0E14F01FF2440E875
:101230000D911D91980106C0F4010D911D913291FF
:1012400022914F0111022001009F100198035F08B5
:10125000300C411C5F1C33023001229F200C311CDA
:10126000461C571CBA035F08300C411C5F1C112739
:10127000552061F018E0F201F03428F5330CEE1F30
:10128000FF1F330CEE1FFF1F1A951DC0442069F08D
:1012900014E0F42DE32DF034B0F4220CEE1FFF1F08
:1012A000220CEE1FFF1F1A95F6CFF101F03458F40F
:1012B000F03160F4F13078F0F295E295EF70EF2BB9
:1012C000E695F1E008C0EF2FF2E005C0EE0FFF1F3A
:1012D000EF2FE068F1E0E457FD4F0491222711233E
:1012E00021F0000F221F1A95E1F7099329934A95DF
:1012F00009F0A2CFDF91CF911F910F91FF908F90B6
:101300007F906F905F904F903F902F90112447985F
:101310003DE8E32E3DE0F32EC12CD12C369B05C0D9
:10132000F601E75FF24F128109C0F70180819181D8
:1013300023E0969587952A95E1F7182FDC2D21E07B
:101340004FE36C2D81E00E94410521E0153008F447
:1013500020E04EE36D2F81E00E94410521E019302D
:1013600008F420E04DE36D2F81E00E94410521E06B
:101370001D3008F420E04CE36D2F81E00E94410510
:1013800021E0113108F420E04BE36D2F81E00E9451
:10139000410521E0153108F420E04AE36D2F81E09A
:1013A0000E94410521E0193108F420E049E36D2F46
:1013B00081E00E94410521E01D3108F420E048E36E
:1013C0006D2F81E00E94410521E0113208F420E0F8
:1013D00047E36D2F81E00E94410521E0153208F4BA
:1013E00020E046E36D2F81E00E94410521E01932A3
:1013F00008F420E045E36D2F81E00E94410521E0E3
:101400001D3208F420E044E36D2F81E00E94410585
:1014100021E0113308F420E043E36D2F81E00E94C6
:10142000410521E0153308F420E042E36D2F81E00F
:101430000E94410521E0193308F420E041E36D2FBB
:1014400081E00E94410521E01D3308F420E040E3E3
:101450006D2F81E00E94410521E0113408F420E065
:101460004FE26D2F81E00E94410521E0153408F420
:1014700020E04EE26D2F81E00E94410521E0193409
:1014800008F420E04DE26D2F81E00E94410521E04B
:101490001D3408F420E04CE26D2F81E00E944105EC
:1014A00021E0113508F420E04BE26D2F81E00E942D
:1014B000410521E0153508F420E04AE26D2F81E076
:1014C0000E94410521E0193508F420E049E26D2F22
:1014D00081E00E94410521E01D3508F420E048E24A
:1014E0006D2F81E00E94410521E0113608F420E0D3
:1014F00047E26D2F81E00E94410521E0153608F496
:1015000020E046E26D2F81E00E94410521E019367E
:1015100008F420E045E26D2F81E00E94410521E0C2
:101520001D3608F420E044E26D2F81E00E94410561
:1015300021E0113708F420E043E26D2F81E00E94A2
:10154000410521E0153708F420E042E26D2F81E0EB
:101550000E94410521E0193708F420E041E26D2F97
:1015600081E00E94410521E01D3708F420E040E2BF
:101570006D2F81E00E94410521E0113808F420E040
:101580004FE16D2F81E00E94410521E0153808F4FC
:1015900020E04EE16D2F81E00E94410521E01938E5
:1015A00008F420E04DE16D2F81E00E94410521E02B
:1015B0001D3808F420E04CE16D2F81E00E944105C8
:1015C00021E0113908F420E04BE16D2F81E00E9409
:1015D000410521E0153908F420E04AE16D2F81E052
:1015E0000E94410521E0193908F420E049E16D2FFE
:1015F00081E00E94410521E01D3908F420E048E126
:101600006D2F81E00E94410501E0113A08F400E0ED
:10161000202F47E16D2F81E00E944105202F47E1F7
:101620006D2F80E00E94410501E0153A08F400E0CA
:10163000202F46E16D2F81E00E944105202F46E1D9
:101640006D2F80E00E94410501E0193A08F400E0A6
:10165000202F45E16D2F81E00E944105202F45E1BB
:101660006D2F80E00E94410501E01D3A08F400E082
:10167000202F44E16D2F81E00E944105202F44E19D
:101680006D2F80E00E94410501E0113B08F400E06D
:10169000202F43E16D2F81E00E944105202F43E17F
:1016A0006D2F80E00E94410501E0153B08F400E049
:1016B000202F42E16D2F81E00E944105202F42E161
:1016C0006D2F80E00E94410501E0193B08F400E025
:1016D000202F41E16D2F81E00E944105202F41E143
:1016E0006D2F80E00E94410501E01D3B08F400E001
:1016F000202F40E16D2F81E00E944105202F40E125
:101700006D2F80E00E94410501E0113C08F400E0EB
:10171000202F4FE06D2F81E00E944105202F4FE0E8
:101720006D2F80E00E94410501E0153C08F400E0C7
:10173000202F4EE06D2F81E00E944105202F4EE0CA
:101740006D2F80E00E94410501E0193C08F400E0A3
:10175000202F4DE06D2F81E00E944105202F4DE0AC
:101760006D2F80E00E94410501E01D3C08F400E07F
:10177000202F4CE06D2F81E00E944105202F4CE08E
:101780006D2F80E00E94410501E0113D08F400E06A
:10179000202F4BE06D2F81E00E944105202F4BE070
:1017A0006D2F80E00E94410501E0153D08F400E046
:1017B000202F4AE06D2F81E00E944105202F4AE052
:1017C0006D2F80E00E94410501E0193D08F400E022
:1017D000202F49E06D2F81E00E944105202F49E034
:1017E0006D2F80E00E94410501E01D3D08F400E0FE
:1017F000202F48E06D2F81E00E944105202F48E016
:101800006D2F80E00E94410521E0113E08F420E0A8
:1018100047E06D2F80E00E94410521E0153E08F46D
:1018200020E046E06D2F80E00E94410521E0193E56
:1018300008F420E045E06D2F80E00E94410521E0A2
:101840001D3E08F420E044E06D2F80E00E94410539
:1018500021E0113F08F420E043E06D2F80E00E947A
:10186000410521E0153F08F420E042E06D2F80E0C3
:101870000E94410521E0193F08F420E041E06D2F6E
:1018800080E00E94410521E01D3F08F420E040E097
:101890006D2F80E00E944105FFEFCF1ADF0A82E042
:1018A000E80EF11CE0E6CE16D10409F037CD0C9419
:1018B000A406DC0101C06D9341505040E0F708954B
:0418C000F894FFCFCA
:0418C400060706010C
:00000001FF
