:100000000C9446000C9465000C9465000C946500FB
:100010000C9465000C9465000C9465000C946500CC
:100020000C9465000C94DB000C9465000C94650046
:100030000C9465000C9465000C9465000C946500AC
:100040000C9465000C9465000C9465000C9465009C
:100050000C9465000C9465000C9465000C9465008C
:100060000C9465000C9465000C9465000C9465007C
:100070000C9465000C9465000C9465000C9465006C
:100080000C9465000C9465000C94650011241FBE4F
:10009000CFEFD0E4DEBFCDBF11E0A0E0B1E0EEEAEB
:1000A000F3E000E00BBF02C007900D92A430B1074F
:1000B000D9F71DE0A4E0B1E001C01D92A830B1075E
:1000C000E1F70E947B010C94D5010C94000025B14E
:1000D000982F9170287F922B60FF02C022E001C010
:1000E00020E0922B95B92A9A2A9825B181FB99276D
:1000F00090F9362F3270932B287F922B95B92A9A3C
:100100002A9825B182FB992790F9287F922B62FFCC
:1001100002C022E001C020E0922B95B92A9A2A98C9
:1001200025B183FB992790F9287F922B63FF02C0AA
:1001300022E001C020E0922B95B92A9A2A9825B195
:1001400084FB992790F9287F922B64FF02C022E05C
:1001500001C020E0922B95B92A9A2A9825B185FBF7
:10016000992790F9287F922B65FF02C022E001C0F9
:1001700020E0922B95B92A9A2A9825B186FB9927D7
:1001800090F9287F922B66FF02C022E001C020E098
:10019000922B95B92A9A2A9895B1881F8827881F8B
:1001A000987F892B661F6627661F660F862B85B989
:1001B0002A9A2A9808951F920F920FB60F9211242F
:1001C0000BB60F92EF92FF920F931F932F933F93D3
:1001D0004F935F936F937F938F939F93AF93BF934F
:1001E000EF93FF93CF93DF9300D01F92CDB7DEB78D
:1001F00098B12091050D822F8061907C892B88B960
:10020000205D3CE039C0E0900001F0900101230343
:10021000C00111248701080F191F085F1C4FE80E49
:10022000F91E88E0E80EF11C9BE0F8016081F701FF
:10023000808129833B839A830E946700F801618152
:10024000F70181810E946700F8016281F7018281D4
:100250000E946700F8016381F70183810E946700B3
:100260009A81945004501109F4E0EF1AF1082981A1
:100270003B819F3FD1F6205127FFC5CF459A449837
:100280008091050D8F5F8093050D8031C1F4109230
:10029000050D80910401882391F0809102019091D5
:1002A000030120910001309101013093030120935B
:1002B00002019093010180930001109204010F90BC
:1002C0000F900F90DF91CF91FF91EF91BF91AF9180
:1002D0009F918F917F916F915F914F913F912F915E
:1002E0001F910F91FF90EF900F900BBE0F900FBEDC
:1002F0000F901F9018958FEF87B980E388B987E03A
:1003000084B984E085B940E05CE06FEF70E085E09F
:1003100091E00E94CE01F89482E08093B00096E0D4
:100320009093B1001092B20090E49093B300809348
:100330007000789480910201909103017091060DF4
:100340006091070D9D5FACE021E030E0B1E0462F09
:10035000469546954695A79FF0011124E40FF11D9F
:10036000E80FF91FC081462F4770890102C0000FB6
:10037000111F4A95E2F7A80140954C2340836F5F17
:10038000603629F47F5F60E0703409F470E0B09368
:100390000401409104014111FCCFD9CFDC0101C01F
:0E03A0006D9341505040E0F70895F894FFCF60
:0403AE000507050139
:00000001FF
